{
  "contractName": "Aggregator",
  "abi": [
    {
      "inputs": [],
      "payable": false,
      "stateMutability": "nonpayable",
      "type": "constructor"
    },
    {
      "anonymous": false,
      "inputs": [
        {
          "indexed": false,
          "internalType": "address",
          "name": "owner",
          "type": "address"
        },
        {
          "indexed": false,
          "internalType": "uint256",
          "name": "amount",
          "type": "uint256"
        },
        {
          "indexed": false,
          "internalType": "address",
          "name": "selectedProtocol",
          "type": "address"
        }
      ],
      "name": "Deposit",
      "type": "event"
    },
    {
      "constant": true,
      "inputs": [],
      "name": "test",
      "outputs": [
        {
          "internalType": "string",
          "name": "",
          "type": "string"
        }
      ],
      "payable": false,
      "stateMutability": "view",
      "type": "function"
    },
    {
      "constant": false,
      "inputs": [
        {
          "internalType": "address",
          "name": "_DAI",
          "type": "address"
        },
        {
          "internalType": "address",
          "name": "_cDAI",
          "type": "address"
        },
        {
          "internalType": "address",
          "name": "_AaveLendingPool",
          "type": "address"
        },
        {
          "internalType": "uint256",
          "name": "_amount",
          "type": "uint256"
        }
      ],
      "name": "deposit",
      "outputs": [],
      "payable": false,
      "stateMutability": "nonpayable",
      "type": "function"
    },
    {
      "constant": false,
      "inputs": [
        {
          "internalType": "address",
          "name": "_cDAI",
          "type": "address"
        }
      ],
      "name": "getCompoundExchangeRate",
      "outputs": [
        {
          "internalType": "uint256",
          "name": "",
          "type": "uint256"
        }
      ],
      "payable": false,
      "stateMutability": "nonpayable",
      "type": "function"
    },
    {
      "constant": false,
      "inputs": [
        {
          "internalType": "address",
          "name": "_AaveLendingPool",
          "type": "address"
        },
        {
          "internalType": "address",
          "name": "_DAI",
          "type": "address"
        }
      ],
      "name": "getAaveExchangeRate",
      "outputs": [
        {
          "internalType": "uint128",
          "name": "",
          "type": "uint128"
        }
      ],
      "payable": false,
      "stateMutability": "nonpayable",
      "type": "function"
    }
  ],
  "bytecode": "0x60806040526040518060400160405280601381526020017f436f6e747261637420536d6f6b652054657374000000000000000000000000008152506000908051906020019061004f929190610062565b5034801561005c57600080fd5b50610107565b828054600181600116156101000203166002900490600052602060002090601f016020900481019282601f106100a357805160ff19168380011785556100d1565b828001600101855582156100d1579182015b828111156100d05782518255916020019190600101906100b5565b5b5090506100de91906100e2565b5090565b61010491905b808211156101005760008160009055506001016100e8565b5090565b90565b610a20806101166000396000f3fe608060405234801561001057600080fd5b506004361061004c5760003560e01c80630284c3f5146100515780638d1cf7a3146100df578063bd59bbd41461017b578063f8a8fd6d146101d3575b600080fd5b6100dd6004803603608081101561006757600080fd5b81019080803573ffffffffffffffffffffffffffffffffffffffff169060200190929190803573ffffffffffffffffffffffffffffffffffffffff169060200190929190803573ffffffffffffffffffffffffffffffffffffffff16906020019092919080359060200190929190505050610256565b005b610141600480360360408110156100f557600080fd5b81019080803573ffffffffffffffffffffffffffffffffffffffff169060200190929190803573ffffffffffffffffffffffffffffffffffffffff169060200190929190505050610762565b60405180826fffffffffffffffffffffffffffffffff166fffffffffffffffffffffffffffffffff16815260200191505060405180910390f35b6101bd6004803603602081101561019157600080fd5b81019080803573ffffffffffffffffffffffffffffffffffffffff1690602001909291905050506108ac565b6040518082815260200191505060405180910390f35b6101db61094d565b6040518080602001828103825283818151815260200191508051906020019080838360005b8381101561021b578082015181840152602081019050610200565b50505050905090810190601f1680156102485780820380516001836020036101000a031916815260200191505b509250505060405180910390f35b6000849050600084905060008490508273ffffffffffffffffffffffffffffffffffffffff166323b872dd3330876040518463ffffffff1660e01b8152600401808473ffffffffffffffffffffffffffffffffffffffff1673ffffffffffffffffffffffffffffffffffffffff1681526020018373ffffffffffffffffffffffffffffffffffffffff1673ffffffffffffffffffffffffffffffffffffffff1681526020018281526020019350505050602060405180830381600087803b15801561032057600080fd5b505af1158015610334573d6000803e3d6000fd5b505050506040513d602081101561034a57600080fd5b8101908080519060200190929190505050506000610367876108ac565b90506000610375878a610762565b6fffffffffffffffffffffffffffffffff1690506000600115610505578573ffffffffffffffffffffffffffffffffffffffff1663095ea7b386896040518363ffffffff1660e01b8152600401808373ffffffffffffffffffffffffffffffffffffffff1673ffffffffffffffffffffffffffffffffffffffff16815260200182815260200192505050602060405180830381600087803b15801561041957600080fd5b505af115801561042d573d6000803e3d6000fd5b505050506040513d602081101561044357600080fd5b810190808051906020019092919050505061045d57600080fd5b60008573ffffffffffffffffffffffffffffffffffffffff1663a0712d68896040518263ffffffff1660e01b815260040180828152602001915050602060405180830381600087803b1580156104b257600080fd5b505af11580156104c6573d6000803e3d6000fd5b505050506040513d60208110156104dc57600080fd5b81019080805190602001909291905050509050600081146104fc57600080fd5b859150506106b7565b8573ffffffffffffffffffffffffffffffffffffffff1663095ea7b38960128a0a6040518363ffffffff1660e01b8152600401808373ffffffffffffffffffffffffffffffffffffffff1673ffffffffffffffffffffffffffffffffffffffff16815260200182815260200192505050602060405180830381600087803b15801561058f57600080fd5b505af11580156105a3573d6000803e3d6000fd5b505050506040513d60208110156105b957600080fd5b81019080805190602001909291905050506105d357600080fd5b8373ffffffffffffffffffffffffffffffffffffffff1663e8eda9df8b893060006040518563ffffffff1660e01b8152600401808573ffffffffffffffffffffffffffffffffffffffff1673ffffffffffffffffffffffffffffffffffffffff1681526020018481526020018373ffffffffffffffffffffffffffffffffffffffff1673ffffffffffffffffffffffffffffffffffffffff1681526020018261ffff168152602001945050505050600060405180830381600087803b15801561069b57600080fd5b505af11580156106af573d6000803e3d6000fd5b505050508390505b7fe31c7b8d08ee7db0afa68782e1028ef92305caeea8626633ad44d413e30f6b2f338883604051808473ffffffffffffffffffffffffffffffffffffffff1673ffffffffffffffffffffffffffffffffffffffff1681526020018381526020018273ffffffffffffffffffffffffffffffffffffffff1673ffffffffffffffffffffffffffffffffffffffff168152602001935050505060405180910390a150505050505050505050565b60008083905060008173ffffffffffffffffffffffffffffffffffffffff166335ea6a75856040518263ffffffff1660e01b8152600401808273ffffffffffffffffffffffffffffffffffffffff1673ffffffffffffffffffffffffffffffffffffffff16815260200191505061018060405180830381600087803b1580156107ea57600080fd5b505af11580156107fe573d6000803e3d6000fd5b505050506040513d61018081101561081557600080fd5b8101908080519060200190929190805190602001909291908051906020019092919080519060200190929190805190602001909291908051906020019092919080519060200190929190805190602001909291908051906020019092919080519060200190929190805190602001909291908051906020019092919050505050505050505050509350505050809250505092915050565b6000808290506000600a8273ffffffffffffffffffffffffffffffffffffffff1663bd6d894d6040518163ffffffff1660e01b8152600401602060405180830381600087803b1580156108fe57600080fd5b505af1158015610912573d6000803e3d6000fd5b505050506040513d602081101561092857600080fd5b81019080805190602001909291905050508161094057fe5b0490508092505050919050565b60008054600181600116156101000203166002900480601f0160208091040260200160405190810160405280929190818152602001828054600181600116156101000203166002900480156109e35780601f106109b8576101008083540402835291602001916109e3565b820191906000526020600020905b8154815290600101906020018083116109c657829003601f168201915b50505050508156fea265627a7a7231582017b1641b40e75bf30f79aab2799c4590f70af3d1e70a839d559c4d1e65d97ffa64736f6c63430005100032",
  "source": "pragma solidity ^0.5.16;\r\n\r\nimport \"openzeppelin-solidity/contracts/math/SafeMath.sol\";\r\n\r\n// Interface for ERC20 DAI contract\r\ninterface DAI {\r\n    function approve(address, uint256) external returns (bool);\r\n\r\n    function transfer(address, uint256) external returns (bool);\r\n\r\n    function transferFrom(\r\n        address,\r\n        address,\r\n        uint256\r\n    ) external returns (bool);\r\n}\r\n\r\n// Interface for Compound's cDAI contract\r\ninterface cDAI {\r\n    function mint(uint256) external returns (uint256);\r\n\r\n    function redeemUnderlying(uint256) external returns (uint256);\r\n\r\n    function exchangeRateCurrent() external returns (uint256);\r\n}\r\n\r\n// Interface for Aave's lending pool contract\r\ninterface AaveLendingPool {\r\n    function deposit(\r\n        address asset,\r\n        uint256 amount,\r\n        address onBehalfOf,\r\n        uint16 referralCode\r\n    ) external;\r\n\r\n    function safeDeposit(\r\n        address asset,\r\n        uint256 amount,\r\n        address onBehalfOf,\r\n        uint16 referralCode\r\n    ) external;\r\n\r\n    function getReserveData(address asset)\r\n        external\r\n        returns (\r\n            uint256 configuration,\r\n            uint128 liquidityIndex,\r\n            uint128 variableBorrowIndex,\r\n            uint128 currentLiquidityRate,\r\n            uint128 currentVariableBorrowRate,\r\n            uint128 currentStableBorrowRate,\r\n            uint40 lastUpdateTimestamp,\r\n            address aTokenAddress,\r\n            address stableDebtTokenAddress,\r\n            address variableDebtTokenAddress,\r\n            address interestRateStrategyAddress,\r\n            uint8 id\r\n        );\r\n}\r\n\r\ncontract Aggregator {\r\n    using SafeMath for uint256;\r\n\r\n    // Variables\r\n    string public test = \"Contract Smoke Test\";\r\n    mapping(address => uint256) balances; // Keep track of user balance?\r\n\r\n    // Events\r\n    event Deposit(address owner, uint256 amount, address selectedProtocol);\r\n\r\n    // Constructor\r\n    constructor() public {}\r\n\r\n    // Functions\r\n\r\n    function deposit(\r\n        address _DAI,\r\n        address _cDAI,\r\n        address _AaveLendingPool,\r\n        uint256 _amount\r\n    ) public {\r\n        // Instiantiate contracts\r\n        DAI dai = DAI(_DAI);\r\n        cDAI cDai = cDAI(_cDAI);\r\n        AaveLendingPool lendingPool = AaveLendingPool(_AaveLendingPool);\r\n\r\n        dai.transferFrom(msg.sender, address(this), _amount);\r\n\r\n        // Fetch interest rates\r\n        uint256 compoundRate = getCompoundExchangeRate(_cDAI);\r\n        uint256 aaveRate = getAaveExchangeRate(_AaveLendingPool, _DAI);\r\n\r\n        address selectedProtocol;\r\n\r\n        // Compare interest rates\r\n        if (true) {\r\n            // Deposit into Compound\r\n            require(dai.approve(address(cDai), _amount));\r\n\r\n            uint256 result = cDai.mint(_amount);\r\n            require(result == 0);\r\n\r\n            selectedProtocol = address(cDai);\r\n        } else {\r\n            // Deposit into Aave\r\n            require(dai.approve(_AaveLendingPool, (_amount**18)));\r\n\r\n            lendingPool.deposit(_DAI, _amount, address(this), 0);\r\n\r\n            selectedProtocol = address(lendingPool);\r\n        }\r\n\r\n        // Emit Deposit event\r\n        emit Deposit(msg.sender, _amount, selectedProtocol);\r\n    }\r\n\r\n    // ---\r\n\r\n    // Get Compound's interest rate\r\n    function getCompoundExchangeRate(address _cDAI) public returns (uint256) {\r\n        cDAI token = cDAI(_cDAI);\r\n        uint256 exchangeRate = (token.exchangeRateCurrent() / 10); // Fetch exchange rate\r\n\r\n        return exchangeRate;\r\n    }\r\n\r\n    // Get Aave's interest rate\r\n    function getAaveExchangeRate(address _AaveLendingPool, address _DAI)\r\n        public\r\n        returns (uint128)\r\n    {\r\n        AaveLendingPool lendingPool = AaveLendingPool(_AaveLendingPool);\r\n\r\n        (, , , uint128 currentLiquidityRate, , , , , , , , ) = lendingPool\r\n            .getReserveData(_DAI);\r\n\r\n        return currentLiquidityRate;\r\n    }\r\n}\r\n",
  "sourcePath": "C:/Users/Justin Acevero/dev/Passion Projects/DAPP-University-Application-Project/dai-best-interest/src/contracts/Aggregator.sol",
  "compiler": {
    "name": "solc",
    "version": "0.5.16+commit.9c3226ce.Emscripten.clang"
  },
  "schemaVersion": "3.2.3",
  "updatedAt": "2021-09-21T01:19:21.358Z",
  "networkType": "ethereum",
  "devdoc": {
    "methods": {}
  },
  "userdoc": {
    "methods": {}
  }
}